:107C000011241FBECFEFD8E0DEBFCDBF4FC0909193
:107C1000C00095FFFCCF8093C600089520E8629FC6
:107C2000B00111249C0120583F4FDC01681B790BE7
:107C3000FB01EA0FFB1FE491ED93A217B307C1F715
:107C400008950F931F93CF93DF938C01C62FD0E03D
:107C5000FC01CE01009749F02091C00027FFFCCF26
:107C60002091C60021930197F5CFAE0142505109F2
:107C700098016CEB76EA8FEF9FEF67D1C00FD11FB1
:107C8000FE013297208130E0322F22272197488150
:107C9000242B8217930721F085E1B9DF80E001C032
:107CA00081E0DF91CF911F910F910895CDB7DEB79D
:107CB000C558D109DEBFCDBF8E010F5F1F4F83E8CE
:107CC000F80111928A95E9F78EE1898385E98A8323
:107CD0008FE08B83CC57DF4F19821882C458D04075
:107CE0001092C50089E18093C4008091C100886131
:107CF0008093C10089818BDF8A8189DF8B8187DF57
:107D000085B5856085BDBEE1EB2EA89B02C0A89A13
:107D1000EA948091C00087FF04C08091C60086303D
:107D200011F0E110F2CF85B58A7F85BDA89A71E187
:107D3000A72EE3E0BE2E99249394F5E08F2EA2E8BF
:107D40007A2E700EEE2009F4F3C08091C00087FFF8
:107D5000FCCFF090C6008F2D8F7D823581F563E0DA
:107D6000C8016FDF882371F3F2E76981FF1203C056
:107D7000C80154DF0AC080E8689FB001112440E8C0
:107D800050E0C801FBD0F999FECF980140E850E0DF
:107D90006CEB76EA8FEF9FEFD8D0CF57DF4F988309
:107DA000C158D040CE57DF4F8883C258D0406801B9
:107DB000F60181916F012BDF7C10FACFC3CFF7E77B
:107DC000FF1230C063E8C8013CDF882309F4BACF52
:107DD000498180E8489FA0011124FA01B092570020
:107DE000E89507B600FCFDCF20E030E0F801E20F97
:107DF000F31F838190E0982F88276281862BF901F9
:107E00000C0190925700E89511242E5F3F4F2038C7
:107E1000310561F7FA0180925700E89507B600FC3A
:107E2000FDCF7BC08635B1F563E0C8010ADF88234A
:107E300011F16980CC24CA94DC2C6620F9F06981A8
:107E4000F6E7FF1204C06619C801E8DE0AC080E840
:107E5000689FB001112440E850E0C8018FD0F99923
:107E6000FECF980140E850E065E477EDC6016DD0A3
:107E70006C016A94E2CFCC24CA94DC2C8D2DC7DE31
:107E80008C2DC5DEC60180959095892FC0DE8C2D86
:107E900080954CC093E6F91213C080E090E0FC019D
:107EA000F695FE2FEE27F795E795B0925700E895E7
:107EB00007B600FCFDCF0196883F910581F72DC0E4
:107EC000E7E5FE1212C063E8C801BBDE882309F4AF
:107ED00039CF6981F0E86F9FB001112440E850E08C
:107EE000C8015CD0F999FECF18C083E4F8120FC026
:107EF000C12CD12C6FEFC60160D0F999FECF9FEF56
:107F0000C91AD90AC114E4E0DE06A1F706C0F8E5F3
:107F1000FF1205C0A0925700E89586E007C081E5F2
:107F2000F81203C086E073DE03C085E170DE0ACF7D
:107F30008091C100877E8093C100CC57DF4FE881DC
:107F4000F981C458D0400995FFCFDB01420F531F80
:107F50002417350791F0F90161919F01862778E098
:107F6000FC01F695E79580FF04C0CF018A279B2787
:107F700001C0CF017150A1F7EBCF0895DC01CB0117
:107F8000FC01F999FECF06C0F2BDE1BDF89A319629
:107F900000B40D9241505040B8F70895DC01A40F91
:107FA000B51F4150504040F0CB01840F951F2E91DA
:107FB00005D041505040D8F70895262FF999FECFAB
:107FC00092BD81BDF89A019700B4021639F01FBA2C
:0E7FD00020BD0FB6F894FA9AF99A0FBE0895E4
:0400000300007C007D
:00000001FF
